{
  "address": "0x5FbDB2315678afecb367f032d93F642f64180aa3",
  "abi": [
    {
      "inputs": [],
      "stateMutability": "nonpayable",
      "type": "constructor"
    },
    {
      "inputs": [],
      "name": "printoutFunc",
      "outputs": [
        {
          "internalType": "string",
          "name": "",
          "type": "string"
        }
      ],
      "stateMutability": "view",
      "type": "function"
    },
    {
      "inputs": [],
      "name": "x",
      "outputs": [
        {
          "internalType": "string",
          "name": "",
          "type": "string"
        }
      ],
      "stateMutability": "view",
      "type": "function"
    }
  ],
  "transactionHash": "0x6f769da435f7e5c097af20a72d9b670ec6c54378b76377e0da5b67484bff8fc3",
  "args": [],
  "numDeployments": 1,
  "solcInputHash": "f577d95f8fd17734bd2a5db56095a8af",
  "bytecode": "0x60806040526040518060400160405280600381526020017f6f6b2100000000000000000000000000000000000000000000000000000000008152506000908051906020019061004f929190610062565b5034801561005c57600080fd5b50610166565b82805461006e90610134565b90600052602060002090601f01602090048101928261009057600085556100d7565b82601f106100a957805160ff19168380011785556100d7565b828001600101855582156100d7579182015b828111156100d65782518255916020019190600101906100bb565b5b5090506100e491906100e8565b5090565b5b808211156101015760008160009055506001016100e9565b5090565b7f4e487b7100000000000000000000000000000000000000000000000000000000600052602260045260246000fd5b6000600282049050600182168061014c57607f821691505b602082108114156101605761015f610105565b5b50919050565b6104ae806101756000396000f3fe608060405234801561001057600080fd5b50600436106100365760003560e01c80630c55699c1461003b578063a4f72af814610059575b600080fd5b610043610077565b60405161005091906103be565b60405180910390f35b610061610105565b60405161006e91906103be565b60405180910390f35b600080546100849061040f565b80601f01602080910402602001604051908101604052809291908181526020018280546100b09061040f565b80156100fd5780601f106100d2576101008083540402835291602001916100fd565b820191906000526020600020905b8154815290600101906020018083116100e057829003601f168201915b505050505081565b60606101d06040518060400160405280600b81526020017f737472696e67203d2025730000000000000000000000000000000000000000008152506000805461014d9061040f565b80601f01602080910402602001604051908101604052809291908181526020018280546101799061040f565b80156101c65780601f1061019b576101008083540402835291602001916101c6565b820191906000526020600020905b8154815290600101906020018083116101a957829003601f168201915b5050505050610260565b600080546101dd9061040f565b80601f01602080910402602001604051908101604052809291908181526020018280546102099061040f565b80156102565780601f1061022b57610100808354040283529160200191610256565b820191906000526020600020905b81548152906001019060200180831161023957829003601f168201915b5050505050905090565b6102f88282604051602401610276929190610441565b6040516020818303038152906040527f4b5c4277000000000000000000000000000000000000000000000000000000007bffffffffffffffffffffffffffffffffffffffffffffffffffffffff19166020820180517bffffffffffffffffffffffffffffffffffffffffffffffffffffffff83818316178352505050506102fc565b5050565b60008151905060006a636f6e736f6c652e6c6f679050602083016000808483855afa5050505050565b600081519050919050565b600082825260208201905092915050565b60005b8381101561035f578082015181840152602081019050610344565b8381111561036e576000848401525b50505050565b6000601f19601f8301169050919050565b600061039082610325565b61039a8185610330565b93506103aa818560208601610341565b6103b381610374565b840191505092915050565b600060208201905081810360008301526103d88184610385565b905092915050565b7f4e487b7100000000000000000000000000000000000000000000000000000000600052602260045260246000fd5b6000600282049050600182168061042757607f821691505b6020821081141561043b5761043a6103e0565b5b50919050565b6000604082019050818103600083015261045b8185610385565b9050818103602083015261046f8184610385565b9050939250505056fea26469706673582212206408786eb1e89e6640630f579880dc8ea5ae10372c95080372a226d368a37acd64736f6c63430008080033",
  "devdoc": {
    "author": "Antonio Pucciarelli",
    "details": "This implement price feed as our library",
    "kind": "dev",
    "methods": {
      "printoutFunc()": {
        "returns": {
          "_0": "x -> parameter set globaly"
        }
      }
    },
    "version": 1
  },
  "userdoc": {
    "kind": "user",
    "methods": {},
    "notice": "Demo of simple funding",
    "version": 1
  },
  "storageLayout": {
    "storage": [
      {
        "astId": 8,
        "contract": "contracts/printout.sol:printout",
        "label": "x",
        "offset": 0,
        "slot": "0",
        "type": "t_string_storage"
      }
    ],
    "types": {
      "t_string_storage": {
        "encoding": "bytes",
        "label": "string",
        "numberOfBytes": "32"
      }
    }
  }
}